:100000000C945D000C9485000C9485000C94850084
:100010000C9485000C9485000C9485000C9485004C
:100020000C9485000C9485000C9485000C9485003C
:100030000C9485000C9485000C9485000C9485002C
:100040000C94E7020C9485000C9485000C948500B8
:100050000C9485000C9485000C9485000C9485000C
:100060000C9485000C94850000000008000201003B
:100070000003040700000000000000000000000072
:10008000250028002B0000000000240027002A0083
:10009000040404040404040402020202020203032E
:1000A0000303030301020408102040800102040836
:1000B00010200102040810202B0411241FBECFEFD2
:1000C000D8E0DEBFCDBF11E0A0E0B1E0E8E4FBE0A6
:1000D00002C005900D92A832B107D9F721E0A8E23D
:1000E000B1E001C01D92AB34B207E1F710E0CDE5FD
:1000F000D0E004C02197FE010E949C05CC35D107B9
:10010000C9F70E9431030C94A2050C94000090E002
:10011000FC01EC55FF4F249180579F4FFC018491C7
:10012000882399F090E0880F991FFC01EA57FF4F50
:10013000A591B491FC01E458FF4F859194918FB73C
:10014000F894EC91E22BEC938FBF089590E0FC01C2
:10015000E859FF4F2491FC01EC55FF4F3491FC010D
:10016000E057FF4FE491EE23C9F0222339F023300A
:1001700001F1A8F4213019F1223029F1F0E0EE0F5D
:10018000FF1FE458FF4FA591B4918FB7F894EC91FD
:10019000611126C030953E233C938FBF08952730D0
:1001A000A9F02830C9F0243049F7809180008F7D74
:1001B00003C0809180008F7780938000DFCF84B56B
:1001C0008F7784BDDBCF84B58F7DFBCF8091B0006E
:1001D0008F778093B000D2CF8091B0008F7DF9CF20
:1001E0003E2BDACF3FB7F89480912F0190913001E8
:1001F000A0913101B091320126B5A89B05C02F3FD7
:1002000019F00196A11DB11D3FBFBA2FA92F982F3C
:100210008827BC01CD01620F711D811D911D42E037
:10022000660F771F881F991F4A95D1F70895AF92DF
:10023000BF92CF92DF92EF92FF920F931F93CF93D3
:10024000DF936C017B018B01040F151FEB015E0135
:10025000AE18BF08C017D10759F06991D601ED91CA
:10026000FC910190F081E02DC6010995892B79F769
:10027000C501DF91CF911F910F91FF90EF90DF901B
:10028000CF90BF90AF900895089590E080E00895DA
:100290008F929F92AF92BF920F931F93CF93DF9352
:1002A000CDB7DEB7A1970FB6F894DEBF0FBECDBFB6
:1002B00019A2423008F44AE08E010F5D1F4F842ED0
:1002C000912CB12CA12CA50194010E947A05E62F56
:1002D000B901CA01EA3044F5E05DD801EE938D0121
:1002E000232B242B252B79F790E080E0109769F0E1
:1002F000FD0101900020E9F73197AF014A1B5B0B2C
:10030000BD0183E391E00E941701A1960FB6F89416
:10031000DEBF0FBECDBFDF91CF911F910F91BF9078
:10032000AF909F908F900895E95CD7CFFC0101902A
:100330000020E9F73197AF01481B590BBC0183E35B
:1003400091E00C941701CF93DF93EC0160E08E8174
:100350000E94A60061E08E810E94A60060E08E816E
:100360000E94A6008BE891E00197F1F7DF91CF9111
:100370000895CF92DF92EF92FF920F931F93CF9346
:10038000DF936C017C0187E0E80EF11CD0E0C0E057
:10039000062F10E0B8010C2E02C0759567950A94DF
:1003A000E2F76170F70181917F010E94A60021961A
:1003B000C430D10579F7C601DF91CF911F910F911C
:1003C000FF90EF90DF90CF900C94A301CF92DF923B
:1003D000EF92FF920F931F93CF93DF93EC01F62ED2
:1003E000642F8C810E94A6008D818F3F19F060E000
:1003F0000E94A6000F2D10E08F8584FF25C06E019E
:1004000087E0C80ED11CF12CE12CB8010E2C02C0E3
:10041000759567950A94E2F76170F60181916F0115
:100420000E94A600FFEFEF1AFF0A88E0E816F10429
:1004300061F7CE01DF91CF911F910F91FF90EF9067
:10044000DF90CF900C94A301B80184E07595679577
:100450008A95E1F7CE010E94B9016F2DCE01DF919F
:10046000CF911F910F91FF90EF90DF90CF900C9460
:10047000B90140E0682F83E391E00C94E601CF934B
:10048000DF93823029F49091420198609093420169
:10049000809346011092470180E48093480180E1F7
:1004A0008093490180E580934A01809137010E9441
:1004B0008700809138018F3F11F00E948700809162
:1004C00039010E948700C3E3D1E09E0123533140EC
:1004D0008091420184FD0AC084E090E021962817B3
:1004E00039073CF48E810E948700EFCF88E090E0CE
:1004F000F5CF8BE39DE00197F1F760E08091370144
:100500000E94A60060E0809139010E94A6008091BF
:1005100038018F3F19F060E00E94A60080914201EF
:1005200084FD39C063E083E391E00E94B901CBE42C
:10053000D6E4CE010197F1F763E083E391E00E94F6
:10054000B9012197F1F763E083E391E00E94B901DB
:1005500083E592E00197F1F762E083E391E00E9486
:10056000B9018091420180620E94390284E0809347
:1005700043018CE00E94390281E00E9439028BE342
:100580009FE10197F1F782E08093440186E0DF91DB
:10059000CF910C94390280620E9439028BE496E478
:1005A0000197F1F78091420180620E94390283E550
:1005B00092E00197F1F78091420180620E94390236
:1005C000D0CF41E00E94E60181E090E008951F92C3
:1005D0000F920FB60F9211242F933F938F939F93F7
:1005E000AF93BF9380912B0190912C01A0912D018D
:1005F000B0912E0130912A0123E0230F2D3758F5B9
:100600000196A11DB11D20932A0180932B01909387
:100610002C01A0932D01B0932E0180912F01909178
:100620003001A0913101B09132010196A11DB11D9F
:1006300080932F0190933001A0933101B093320148
:10064000BF91AF919F918F913F912F910F900FBECE
:100650000F901F90189526E8230F0296A11DB11D3B
:10066000D2CF789484B5826084BD84B5816084BD26
:1006700085B5826085BD85B5816085BD80916E0040
:10068000816080936E001092810080918100826071
:1006900080938100809181008160809381008091AE
:1006A00080008160809380008091B100846080939D
:1006B000B1008091B00081608093B00080917A0099
:1006C000846080937A0080917A00826080937A00BF
:1006D00080917A00816080937A0080917A008068AE
:1006E00080937A001092C10082E00E943F0282E073
:1006F0000E94870081E00E94870095E4B92ECBE339
:10070000DFE100E010E0B0927C0080917A0080642C
:1007100080937A0080917A0086FDFCCF609178000A
:1007200070917900072E000C880B990B0E948104B0
:1007300025E732E04AEF5EE30E94E5040E944904A7
:1007400070932901609328016431710544F460E0DD
:1007500082E00E94A6008CE091E00E9496018091C8
:1007600028019091290161E044970CF46EC082E069
:100770000E94A60060E081E00E94A60086E191E070
:100780000E949601E0914601E23008F062C0E1501B
:10079000F0E0ED5CFE4F848980680E9439028FE1B1
:1007A00091E00E949601C0902801D09029010D2C63
:1007B000000CEE08FF084AE0C701B601F7FE0EC0C4
:1007C00041E06DE283E391E00E94E601662777272E
:1007D000CB016C197D098E099F094AE00E944801EE
:1007E00086E291E00E9496010E94F2002B013C01FA
:1007F00084E6C82ED12CE12CF12C0E94F200641961
:10080000750986099709683E734081059105A8F32B
:1008100021E0C21AD108E108F10888EE480E83E011
:10082000581E611C711CC114D104E104F10429F7A4
:1008300081E00E943902CE010197F1F701151105FF
:1008400009F461CF0E9400005ECF81E00E94A60003
:1008500099CFE1E09DCFE3E3F1E01382128284E0DF
:1008600091E0918380838CE084838FEF85838BE09C
:10087000868384E0878385E0808786E0818787E0C0
:1008800082871386148615861686178681E00C9457
:100890003F020E9450046894B1110C94DF04089543
:1008A0000E94C40488F09F5798F0B92F9927B75138
:1008B000B0F0E1F0660F771F881F991F1AF0BA9504
:1008C000C9F714C0B13091F00E94DE04B1E0089580
:1008D0000C94DE04672F782F8827B85F39F0B93F72
:1008E000CCF3869577956795B395D9F73EF49095B7
:1008F0008095709561957F4F8F4F9F4F0895E89435
:1009000009C097FB3EF490958095709561957F4F57
:100910008F4F9F4F9923A9F0F92F96E9BB27939505
:10092000F695879577956795B795F111F8CFFAF415
:10093000BB0F11F460FF1BC06F5F7F4F8F4F9F4F46
:1009400016C0882311F096E911C0772321F09EE8A4
:10095000872F762F05C0662371F096E8862F70E00A
:1009600060E02AF09A95660F771F881FDAF7880FE4
:100970009695879597F9089557FD9058440F551F00
:1009800059F05F3F71F04795880F97FB991F61F011
:100990009F3F79F087950895121613061406551F88
:1009A000F2CF4695F1DF08C0161617061806991FF4
:1009B000F1CF86957105610508940895E894BB27E9
:1009C00066277727CB0197F908950E94F8040C94C5
:1009D00069050E945B0538F00E94620520F09523AE
:1009E00011F00C9452050C94580511240C94DF045A
:1009F0000E94BC0470F3959FC1F3950F50E0551F02
:100A0000629FF001729FBB27F00DB11D639FAA2763
:100A1000F00DB11DAA1F649F6627B00DA11D661FB2
:100A2000829F2227B00DA11D621F739FB00DA11DD3
:100A3000621F839FA00D611D221F749F3327A00D8D
:100A4000611D231F849F600D211D822F762F6A2F29
:100A500011249F5750409AF0F1F088234AF0EE0F8E
:100A6000FF1FBB1F661F771F881F91505040A9F7BB
:100A70009E3F510580F00C9452050C94DF045F3FBB
:100A8000E4F3983ED4F3869577956795B795F795F7
:100A9000E7959F5FC1F7FE2B880F911D969587956F
:100AA00097F9089597F99F6780E870E060E00895EE
:100AB0009FEF80EC089500240A9416161706180676
:100AC0000906089500240A94121613061406050652
:100AD0000895092E0394000C11F4882352F0BB0FE3
:100AE00040F4BF2B11F460FF04C06F5F7F4F8F4F46
:100AF0009F4F0895A1E21A2EAA1BBB1BFD010DC03A
:100B0000AA1FBB1FEE1FFF1FA217B307E407F507BD
:100B100020F0A21BB30BE40BF50B661F771F881F99
:100B2000991F1A9469F760957095809590959B012F
:100B3000AC01BD01CF010895EE0FFF1F0590F491A8
:080B4000E02D0994F894FFCFA9
:100B480000000000E1021701450144014B69706192
:100B580073206F6666004B69706173206F6E005377
:080B68007568753A2000430096
:00000001FF
